:100000002002002045010000AD010000AD0100000C
:1000100000000000000000000000000000000000E0
:10002000000000000000000000000000AD01000022
:100030000000000000000000AD010000AD01000064
:10004000AD010000AD010000AD010000AD010000F8
:100050000000000000000000AD010000AD01000044
:10006000AD01000000000000AD0100000000000034
:10007000AD01000000000000AD010000AD01000076
:10008000AD010000AD010000AD010000AD010000B8
:10009000AD010000AD010000AD010000AD010000A8
:1000A000AD01000000000000AD010000AD01000046
:1000B000AD01000000000000AD010000AD01000036
:1000C00010B5064C2378002B07D1054B002B02D02E
:1000D000044800E000BF0123237010BD040000208D
:1000E000000000006C020000044B10B5002B03D090
:1000F0000349044800E000BF10BDC04600000000F6
:10010000080000206C020000014B024A1A60704790
:100110000000002000366E0110B5084B1B8808490E
:10012000CA685B055B0DD20AD2021343CB60044B55
:10013000DB681B05FBD5FFF7E7FF10BD000C1000C7
:1001400000200040104885461049114A114B9B1A67
:1001500003DD043BC858D050FBDC0F490F4A002098
:10016000521A02DD043A8850FCDC0D480D4A002189
:1001700000A1814200D902440B480260FFF7CCFF86
:1001800000F020F8704700002002002074020000F8
:1001900000000020040000200400002020000020B7
:1001A000000000200000000008ED00E0FEE7C0466F
:1001B00082B00190019B5A1E0192002BFAD102B02D
:1001C00070470000F8B5214A116A80235B050B4394
:1001D00013621F4BE62149005C5810222000904317
:1001E0005850FC3900205850F0315C5820009043A2
:1001F00058502C315C5820009043585008395C58B6
:1002000020009043585004395C58200090435850C7
:1002100004395C5820001043585014395858024390
:100220005A508027FF013800FFF7C2FF084EE4252F
:100230006D00725910241300A34373513800FFF767
:10024000B7FF73591C437451EBE7C04600200040D0
:10025000000C0240F8B5C046F8BC08BC9E4670478A
:0C026000F8B5C046F8BC08BC9E467047CC
:04026C00E9000000A5
:04027000C1000000C9
:0402740000093D0040
:0400000300000145B3
:00000001FF
