:1000000020020020AD0200001503000015030000CF
:1000100000000000000000000000000000000000E0
:1000200000000000000000000000000015030000B8
:100030000000000000000000150300001503000090
:100040001503000015030000150300001503000050
:100050000000000000000000150300001503000070
:100060001503000000000000150300000000000060
:100070001503000000000000150300001503000038
:100080001503000015030000150300001503000010
:100090001503000015030000150300001503000000
:1000A0001503000000000000150300001503000008
:1000B00015030000000000001503000015030000F8
:1000C00010B5064C2378002B07D1054B002B02D02E
:1000D000044800E000BF0123237010BD040000208D
:1000E0000000000064030000044B10B5002B03D097
:1000F0000349044800E000BF10BDC04600000000F6
:1001000008000020640300008023F7B54949C62693
:100110000A6A5B0513430B621023474976008A592C
:10012000C0259A438A510022D62444486D000260BB
:10013000D2204A5964009A434A510A5940009A43CE
:100140000A510A580F009A430A50D02149007A58A0
:1001500001919A437A50CE2252001100BA589A4324
:100160007A50BA599446202261469143B9510121EF
:10017000334F3960304F39007F599743BC460F00E9
:100180006146795139003F599743BC460F0061469B
:10019000395139003F589743BC460F0061463950EA
:1001A000019B3900FF589743BC460F006146F95048
:1001B000CE2149007F5897433A001F4F7A50BA59D1
:1001C0009446402261469143B9511E4F8C3EFF3EFA
:1001D0003E60194F7E5996437E513D590126954305
:1001E0003D513C5814433C50CE24F8586400904391
:1001F000F85039590F4B91433951196A0A431A6221
:100200001023114A11680B430421136013688B43B8
:100210001360136849188B43136013680639B3439E
:10022000136013688B43136013687E318B43136034
:10023000F7BDC04600200040000C0240900C024078
:10024000940C0240980C02400008004082B00190DB
:10025000019B5A1E0192002BFAD102B07047000098
:1002600070B5FFF751FF4023C42510260D4C6D00DB
:100270002268134323600C4B5A59B2435A51A122AE
:10028000E260A2681206FCD5E2685222E260A2682F
:100290001206FCD5E2685A59C82032435A51FFF77A
:1002A000D5FFE8E700080040000C024010488546F2
:1002B0001049114A114B9B1A03DD043BC858D0501A
:1002C000FBDC0F490F4A0020521A02DD043A885025
:1002D000FCDC0D480D4A002100A1814200D90244F6
:1002E0000B48026000F018F8FFF7BAFF70470000F3
:1002F000200200206C030000000000200400002009
:100300000400002020000020000000200000000069
:1003100008ED00E0FEE7C046084B09491A88CB68A3
:100320005205DB0A520DDB021343CB60CB681B0581
:10033000FCD5044B044A1A607047C046000C1000FC
:10034000002000400000002000366E01F8B5C046D5
:10035000F8BC08BC9E467047F8B5C046F8BC08BC5F
:040360009E467047FE
:04036400E9000000AC
:04036800C1000000D0
:04036C0000093D0047
:04000003000002AD4A
:00000001FF
