:10000000200200203D010000A5010000A501000024
:1000100000000000000000000000000000000000E0
:10002000000000000000000000000000A50100002A
:100030000000000000000000A5010000A501000074
:10004000A5010000A5010000A5010000A501000018
:100050000000000000000000A5010000A501000054
:10006000A501000000000000A50100000000000044
:10007000A501000000000000A5010000A50100008E
:10008000A5010000A5010000A5010000A5010000D8
:10009000A5010000A5010000A5010000A5010000C8
:1000A000A501000000000000A5010000A50100005E
:1000B000A501000000000000A5010000A50100004E
:1000C00010B5064C2378002B07D1054B002B02D02E
:1000D000044800E000BF0123237010BD040000208D
:1000E0000000000058020000044B10B5002B03D0A4
:1000F0000349044800E000BF10BDC04600000000F6
:100100000800002058020000084B09491A88CB68F3
:100110005205DB0A520DDB021343CB60CB681B0593
:10012000FCD5044B044A1A607047C046000C10000E
:10013000002000400000002000366E011048854677
:100140001049114A114B9B1A03DD043BC858D0508B
:10015000FBDC0F490F4A0020521A02DD043A885096
:10016000FCDC0D480D4A002100A1814200D9024467
:100170000B480260FFF7C8FF00F020F8704700004E
:100180002002002060020000000000200400002087
:1001900004000020200000200000002000000000DB
:1001A00008ED00E0FEE7C04682B00190019B5A1EB8
:1001B0000192002BFAD102B070470000802370B585
:1001C0001C4A5B05116A1C4C0B43E6211362102389
:1001D00049006258E4259A4362500021174A6D0095
:1001E0001160C131FF3162589A4362502C3162581C
:1001F0009A436250083962589A43625004396258EF
:100200009A436250043962581A4362506259134348
:10021000635180201026C001FFF7C6FF802063597C
:10022000C001B3436351FFF7BFFF63591E436651DB
:10023000EFE7C04600200040000C0240D00C024016
:10024000F8B5C046F8BC08BC9E467047F8B5C04635
:08025000F8BC08BC9E46704793
:04025800E9000000B9
:04025C00C1000000DD
:0402600000093D0054
:040000030000013DBB
:00000001FF
