:1000000020020020FD0200006503000065030000DF
:1000100000000000000000000000000000000000E0
:100020000000000000000000000000006503000068
:1000300000000000000000006503000065030000F0
:100040006503000065030000650300006503000010
:1000500000000000000000006503000065030000D0
:1000600065030000000000006503000000000000C0
:100070006503000000000000650300006503000048
:1000800065030000650300006503000065030000D0
:1000900065030000650300006503000065030000C0
:1000A0006503000000000000650300006503000018
:1000B0006503000000000000650300006503000008
:1000C00010B5064C2378002B07D1054B002B02D02E
:1000D000044800E000BF0123237010BD040000208D
:1000E00000000000BC030000044B10B5002B03D03F
:1000F0000349044800E000BF10BDC04600000000F6
:1001000008000020BC030000F0B5DE4657464E460E
:100110004546E0B5534B99461A6A80235B05134365
:100120004A461362504BC6225200944698587D3A74
:10013000FF3A010091436046195090210020585029
:10014000C0277F00D85901009143D951D6267600A7
:100150009859010091439951D2256D0058590100D9
:1001600091435951D0246400185901009143195109
:10017000CE20400019589143195061465958813C8E
:10018000FF3C0800A04380466046414619500121CB
:100190008846933140465850D9590800A043D85159
:1001A00099590800A043985159590800A043585143
:1001B000D021490059580800A0430100D020400038
:1001C0001950043819580800A0430100CE204000FF
:1001D0001950614659588B464021584688438246FB
:1001E000604654461C50F43844461C50D859884345
:1001F000D851985907008F439F515F593E000E43D5
:100200005E51A034FF341E5935008D431D51CE2060
:1002100040001D582C008C431C504B461B6A194350
:100220004B461962114B19680A431A601968042277
:1002300091431960196808229143196019680A00EE
:1002400041468A431A60196802229143196019686D
:10025000802291431960F0BCBB46B246A946A04635
:10026000F0BDC04600200040000C024000080040E5
:10027000024A116840230B43136070470008004096
:10028000014BD8607047C0460008004082B0019022
:10029000019B5A1E0192002BFAD102B07047000058
:1002A00010B5FFF731FFFFF7E3FF124AC4235B00ED
:1002B000D05810218843D050A120FFF7E1FF0E4B0A
:1002C0009B681B06FBD50C4BDB685220FFF7D8FF61
:1002D000094B9B681B06FBD5074BDB680549C4220D
:1002E00052008858102303438B50C820FFF7CEFFDD
:1002F000DBE7C046000C024000080040104885467D
:100300001049114A114B9B1A03DD043BC858D050C9
:10031000FBDC0F490F4A0020521A02DD043A8850D4
:10032000FCDC0D480D4A002100A1814200D90244A5
:100330000B48026000F020F8FFF7B2FF70470000A2
:1003400020020020C4030000000000200400002060
:100350000400002020000020000000200000000019
:1003600008ED00E0FEE7C046014B024A1A60704704
:100370000000002000366E0110B5084B1B880849AC
:10038000CA685B055B0DD20AD2021343CB60044BF3
:10039000DB681B05FBD5FFF7E7FF10BD000C100065
:1003A00000200040F8B5C046F8BC08BC9E46704727
:0C03B000F8B5C046F8BC08BC9E4670477B
:0403BC00E900000054
:0403C000C100000078
:0403C40000093D00EF
:04000003000002FDFA
:00000001FF
