:10000000200200208D010000F5010000F501000034
:1000100000000000000000000000000000000000E0
:10002000000000000000000000000000F5010000DA
:100030000000000000000000F5010000F5010000D4
:10004000F5010000F5010000F5010000F5010000D8
:100050000000000000000000F5010000F5010000B4
:10006000F501000000000000F501000000000000A4
:10007000F501000000000000F5010000F50100009E
:10008000F5010000F5010000F5010000F501000098
:10009000F5010000F5010000F5010000F501000088
:1000A000F501000000000000F5010000F50100006E
:1000B000F501000000000000F5010000F50100005E
:1000C0000448054B10B5834203D0044B002B00D0ED
:1000D000984710BD0400002004000020000000002C
:1000E00006480749091A8B10C90FC91810B54910DD
:1000F00003D0044B002B00D0984710BD0400002013
:10010000040000200000000010B5074C2378002BED
:1001100009D1FFF7D5FF054B002B02D0044800E0C2
:1001200000BF0123237010BD040000200000000068
:10013000A8020000054B10B5002B03D00449054868
:1001400000E000BFFFF7CCFF10BDC046000000007C
:1001500008000020A8020000084B09491A88CB6853
:100160005205DB0A520DDB021343CB60CB681B0543
:10017000FCD5044B044A1A607047C046080C1000B6
:10018000002000400000002000093D001048854686
:100190001049114A114B9B1A03DD043BC858D0503B
:1001A000FBDC0F490F4A0020521A02DD043A885046
:1001B000FCDC0D480D4A002100A1814200D9024417
:1001C0000B480260FFF7C8FF00F020F870470000FE
:1001D00020020020B00200000000002004000020E7
:1001E000040000202000002000000020000000008B
:1001F00008ED00E0FEE7C04682B00190019B5A1E68
:100200000192002BFAD102B070470000802370B534
:100210001C4A5B05116A1C4C0B43E6211362102338
:1002200049006258E4259A4362500021174A6D0044
:100230001160C131FF3162589A4362502C316258CB
:100240009A436250083962589A436250043962589E
:100250009A436250043962581A43625062591343F8
:10026000635180201026C001FFF7C6FF802063592C
:10027000C001B3436351FFF7BFFF63591E4366518B
:10028000EFE7C04600200040000C0240D00C0240C6
:10029000F8B5C046F8BC08BC9E467047F8B5C046E5
:0802A000F8BC08BC9E46704743
:0402A800350100001C
:0402AC000901000044
:0402B00000093D0004
:040000030000018D6B
:00000001FF
