:10000000200200208D010000EC010000EC01000046
:1000100000000000000000000000000000000000E0
:10002000000000000000000000000000EC010000E3
:100030000000000000000000EC010000EC010000E6
:10004000EC010000EC010000EC010000EC010000FC
:10005000EC010000EC010000EC010000EC010000EC
:10006000EC010000EC010000EC010000EC010000DC
:10007000EC010000EC010000EC010000EC010000CC
:10008000EC010000EC010000EC010000EC010000BC
:10009000EC010000EC010000EC010000EC010000AC
:1000A000EC010000EC010000EC010000EC0100009C
:1000B000EC010000EC010000EC010000EC0100008C
:1000C0000448054B10B5834203D0044B002B00D0ED
:1000D000984710BD0400002004000020000000002C
:1000E00006480749091A8B10C90FC91810B54910DD
:1000F00003D0044B002B00D0984710BD0400002013
:10010000040000200000000010B5074C2378002BED
:1001100009D1FFF7D5FF054B002B02D0044800E0C2
:1001200000BF0123237010BD040000200000000068
:10013000A0020000054B10B5002B03D00449054870
:1001400000E000BFFFF7CCFF10BDC046000000007C
:1001500008000020A0020000084B09491A88CB685B
:100160005205DB0A520DDB021343CB60CB681B0543
:10017000FCD5044B044A1A607047C046080C1000B6
:10018000002000400000002000093D000F49104AF7
:10019000104B9B1A03DD043BC858D050FBDC0E49C2
:1001A0000E4A0020521A02DD043A8850FCDC0C484A
:1001B0000C4A002100A1814200D902440A48026091
:1001C000FFF7CAFF00F01EF870470000A802000009
:1001D0000000002004000020040000202000002077
:1001E000000000200000000008ED00E0FEE7C0462F
:1001F00082B00190019B5A1E0192002BFAD102B0ED
:1002000070470000802370B51C4A5B05116A1C4CC6
:100210000B43E6211362102349006258E4259A43F8
:1002200062500021174A6D001160C131FF316258E0
:100230009A4362502C3162589A436250083962588E
:100240009A436250043962589A43625004396258A2
:100250001A43625062591343635180201026C00133
:10026000FFF7C6FF80206359C001B3436351FFF716
:10027000BFFF63591E436651EFE7C04600200040B0
:10028000000C0240D00C0240F8B5C046F8BC08BCD7
:100290009E467047F8B5C046F8BC08BC9E467047FD
:0402A0003501000024
:0402A400090100004C
:0402A80000093D000C
:040000030000018D6B
:00000001FF
