:1000000020020020F1030000590400005904000000
:1000100000000000000000000000000000000000E0
:100020000000000000000000000000005904000073
:100030000000000000000000590400005904000006
:10004000590400005904000059040000590400003C
:1000500000000000000000005904000059040000E6
:1000600059040000000000005904000000000000D6
:100070005904000000000000590400005904000069
:1000800059040000D3000000590400005904000086
:1000900059040000590400005904000059040000EC
:1000A0005904000000000000590400005904000039
:1000B0005904000000000000590400005904000029
:1000C00082B00190019B5A1E0192002BFAD102B01E
:1000D0007047054A136FDB07D90F002B02D0536F0F
:1000E0008B4353677047C046000C0040084B0949DA
:1000F0001A88CB685205DB0A520DDB021343CB6032
:10010000CB681B05FCD5044B044A1A607047C046F7
:10011000080C1000002000400000002000093D00F5
:100120000448054B10B5834203D0044B002B00D08C
:10013000984710BD040000200400002000000000CB
:1001400006480749091A8B10C90FC91810B549107C
:1001500003D0044B002B00D0984710BD04000020B2
:10016000040000200000000010B5074C2378002B8D
:1001700009D1FFF7D5FF054B002B02D0044800E062
:1001800000BF0123237010BD040000200000000008
:1001900074040000054B10B5002B03D0044905483A
:1001A00000E000BFFFF7CCFF10BDC046000000001C
:1001B0000800002074040000F8B580237E4CC6209F
:1001C000226A5B0513430022CE2523627B497C4BC8
:1001D00040000A610A651A5040301A504C384A6093
:1001E0004A641A5040301A5014380A630A671A5089
:1001F00040301A504C384A624A661A5040301A5001
:100200003C388A628A661A5040301A506D00E538D0
:1002100008620866585140355851CA60CA64C42102
:1002200049005A5040315A50226A664966480A408D
:10023000012122626269654F920A92020A43626159
:1002400080226169D20001400A436261604AA26073
:100250000422A76021680A4322606269D204FCD5A7
:1002600030225B4DD626A560A760216876009143B9
:10027000103A0A4301212260A560A7602268C625C2
:100280008A4322608022216A52050A432262102298
:100290006D005959914359514E498A3DFF3D0D60BA
:1002A0007E35FF3559599143595199599143995187
:1002B000083E995991439951043E99599143995156
:1002C000CE2149005E589643C1225E509200995853
:1002D000414E014099508021985889010143FA20EC
:1002E0009950C001FFF7ECFE394B3C49A360A76071
:1002F000236833401D4380232560226A9B00384DCC
:1003000013432362EB6E374A0B40EB66EB6E1340F0
:10031000EB66EB6E3232FF329343EB66EB6E283ABC
:100320009343EB66EB6E043A9343EB660223EA6E6B
:100330001343EB668023EA6EDB001343EB668022F7
:10034000294B92021A60EB6E1B06FCD5E0226B6E05
:1003500012021B0C1B0413436B662A660422234BF8
:100360001A618022236A9200134301222362EB6EFA
:100370001343EB6630BFEB6E64209343EB66236A56
:10038000164A13402362FFF79BFE114BFA20A3602D
:100390008023A76022684001324013432360FFF7A7
:1003A0008FFE0B4BA360A023A76022685B00324046
:1003B00013432360D5E7C04600200040FC0C0240F8
:1003C000000C0240FFFFFFEFFFF3FFFFA5A50000B9
:1003D0005A5A0000900C02403FFEFFFFFFFDFFFF56
:1003E000000C0040FFFEFFFF00E100E000ED00E038
:1003F000104885461049114A114B9B1A03DD043BF6
:10040000C858D050FBDC0F490F4A0020521A02DDB9
:10041000043A8850FCDC0D480D4A002100A18142BD
:1004200000D902440B480260FFF760FEFFF7C4FEEC
:1004300070470000200200207C0400000000002023
:100440000400002004000020200000200000002004
:100450000000000008ED00E0FEE7C046F8B5C04629
:10046000F8BC08BC9E467047F8B5C046F8BC08BC4E
:040470009E467047ED
:0404740095010000EE
:040478006901000016
:04047C0000093D0036
:04000003000003F105
:00000001FF
