:10000000200200205D040000C5040000C5040000BB
:1000100000000000000000000000000000000000E0
:10002000000000000000000000000000C504000007
:100030000000000000000000C5040000C50400002E
:10004000C5040000C5040000C5040000C50400008C
:100050000000000000000000C5040000C50400000E
:10006000C504000000000000C504000000000000FE
:10007000C504000000000000C5040000C504000025
:10008000C504000041040000C5040000C5040000D0
:10009000C5040000C5040000C5040000C50400003C
:1000A000C504000000000000C5040000C5040000F5
:1000B000C504000000000000C5040000C5040000E5
:1000C0000448054B10B5834203D0044B002B00D0ED
:1000D000984710BD0400002004000020000000002C
:1000E00006480749091A8B10C90FC91810B54910DD
:1000F00003D0044B002B00D0984710BD0400002013
:10010000040000200000000010B5074C2378002BED
:1001100009D1FFF7D5FF054B002B02D0044800E0C2
:1001200000BF0123237010BD040000200000000068
:100130001C050000054B10B5002B03D004490548F1
:1001400000E000BFFFF7CCFF10BDC046000000007C
:10015000080000201C050000034A116A80235B058B
:100160000B4313627047C0460020004010B5174B88
:10017000C62149005C581022200090435850FC3999
:1001800003205850F0315C582000904358502C31D7
:100190005C5820009043585008395C582000904328
:1001A000585004395C58200090435850043958582E
:1001B00090435850C12292009858054901409950E7
:1001C0009858802189010143995010BD000C0240CC
:1001D000FFF3FFFF0649074B8B60074B8B600B68F3
:1001E000072210408001054A134003430B6070470B
:1001F000002000405A5A0000A5A500003FFEFFFF66
:1002000082B00190019B5A1E0192002BFAD102B0DC
:100210007047000010B5164B5969890A8A020121FE
:100220000A435A615969134A11408022D2000A4395
:100230005A61114A9A60114A9A60196804220A4365
:100240001A600B4B5B69DB04FBD5094B0A4C9C60C5
:100250000A489860196830229143103A0A431A609C
:100260009C609860196801229143196010BDC046D6
:1002700000200040FFF3FFFF5A5A0000A5A5000030
:1002800010B524490A6A80235B0513430B62224B95
:100290000022862040001A5040301A5040301A5038
:1002A00040301A50CC381A5040301A5040301A5052
:1002B00040301A5094381A5040301A5040301A507A
:1002C00040301A50CC381A5040301A5040301A5032
:1002D00040301A50BC381A5040301A5040301A5032
:1002E00040301A50E5388E246400185140341851BB
:1002F000403418514034185109301A5040301A50C7
:1003000040301A5040301A500A6A044B13400B62B6
:1003100010BDC04600200040000C0240FFFFFFEF70
:10032000034A116A80239B000B4313627047C04647
:1003300000200040024A116A024B0B4013627047D2
:1003400000200040FFFDFFFF174BD96E174A0A40FF
:10035000DA66D96E164A0A40DA66D96E30229143BF
:10036000D966D96E08229143D966D96E0422914389
:10037000D966D96E02220A43DA66D96E8022D2008B
:100380000A43DA660B4B802292021A60064BDB6E40
:100390001B06FBD504494A6E120C1304E020000230
:1003A00003434B6608667047000C0040FFFDFFFFEB
:1003B000FFFEFFFF00E100E0024AD16E01230B4384
:1003C000D3667047000C0040024BD96E0122914366
:1003D000D9667047000C0040014B04221A61704737
:1003E00000ED00E010B5FFF74BFFFFF713FFFFF73D
:1003F000B3FEFFF7BBFEFA20C001FFF701FF0620A6
:10040000FFF7E8FEFFF78CFFFFF79EFFFFF7E4FF23
:10041000FFF786FFFFF7D0FF30BFFFF7D5FFFFF7ED
:1004200089FF6420FFF7ECFE0220FFF7D3FEFA20DD
:100430004001FFF7E5FE0520FFF7CCFEE8E70000EE
:10044000054B1B6FDB0700D47047034B596F01222C
:1004500091435967F8E7C046000C004010488546B4
:100460001049114A114B9B1A03DD043BC858D05068
:10047000FBDC0F490F4A0020521A02DD043A885073
:10048000FCDC0D480D4A002100A1814200D9024444
:100490000B48026000F020F8FFF7A4FF704700004F
:1004A000200200202405000000000020040000209D
:1004B00004000020200000200000002000000000B8
:1004C00008ED00E0FEE7C046014B024A1A607047A3
:1004D0000000002000093D0010B5084B1B880849AA
:1004E000CA685B055B0DD20AD2021343CB60044B92
:1004F000DB681B05FBD5FFF7E7FF10BD080C1000FC
:1005000000200040F8B5C046F8BC08BC9E467047C5
:0C051000F8B5C046F8BC08BC9E46704719
:04051C0035010000A5
:0405200009010000CD
:0405240000093D008D
:040000030000045D98
:00000001FF
