:1000000020020020AD0300001504000015040000CC
:1000100000000000000000000000000000000000E0
:1000200000000000000000000000000015040000B7
:10003000000000000000000015040000150400008E
:10004000150400001504000015040000150400004C
:10005000000000000000000015040000150400006E
:10006000150400000000000015040000000000005E
:100070001504000000000000150400001504000035
:10008000150400009503000015040000150400008D
:1000900015040000150400001504000015040000FC
:1000A0001504000000000000150400001504000005
:1000B00015040000000000001504000015040000F5
:1000C00010B5064C2378002B07D1054B002B02D02E
:1000D000044800E000BF0123237010BD040000208D
:1000E0000000000064040000044B10B5002B03D096
:1000F0000349044800E000BF10BDC04600000000F6
:100100000800002064040000C621102314484900A0
:1001100042589A434250032212490A60C0214900C2
:1001200042589A4342502C3142589A43425008391F
:1001300042589A434250043942589A434250043933
:1001400042589A43C12342509B00C25806490A4074
:10015000C2508022C15892010A43C2507047C04623
:10016000000C0240900C0240FFF3FFFF0721064AFB
:10017000064B08409360064B064993601368800164
:100180000B40034313607047002000405A5A0000A0
:10019000A5A500003FFEFFFF82B00190019B5A1E03
:1001A0000192002BFAD102B070470000012110B576
:1001B000134B04205A69920A92020A435A61596900
:1001C000104A11408022D2000A435A610E490F4A58
:1001D00099609A601C68204318605869C004FCD577
:1001E000302099609A601C6884431038204318605E
:1001F000996001219A601A688A431A6010BDC0464E
:1002000000200040FFF3FFFF5A5A0000A5A50000A0
:10021000802330B51D4A5B05116A1D4D0B43C62175
:10022000136200231B484900036103656B50403192
:100230006B504C39436043646B5040316B50143900
:10024000036303676B5040316B504C394362436624
:100250006B5040316B503C39836283666B50403148
:100260006B50E539016204000166CE204000295040
:10027000403029508931E360E3646B5040316B506A
:10028000136A05490B40136230BDC0460020004090
:10029000000C0240FC0C0240FFFFFFEF174B184917
:1002A000DA6E0A40DA66DA6E16490A40DA66DA6E03
:1002B0003231FF318A43DA66DA6E28398A43DA66E8
:1002C000DA6E04398A43DA660222D96E0A43DA66A4
:1002D0008022D96ED2000A43DA6680210A4A890256
:1002E0001160DA6E1206FCD5E0215A6E0902120C7A
:1002F00012040A435A6619667047C046000C004053
:10030000FFFDFFFFFFFEFFFF00E100E070B5FFF71C
:100310007FFFFFF74BFF80231A4C5B05226A802684
:1003200013432362FFF7F0FEFA20C001FFF734FF0A
:100330000620FFF71BFF236AB60033432362FFF753
:10034000ADFF04220125104B1A61236A3343236257
:100350000E4BDA6E2A43DA6630BFDA6E6420AA43A7
:10036000DA66236A0A4A13402362FFF715FF022068
:10037000FFF7FCFEFA204001FFF70EFF0520FFF714
:10038000F5FEE2E70020004000ED00E0000C004038
:10039000FFFDFFFF044A136FDB07D90F002B02D0CC
:1003A000536F8B4353677047000C004010488546DD
:1003B0001049114A114B9B1A03DD043BC858D05019
:1003C000FBDC0F490F4A0020521A02DD043A885024
:1003D000FCDC0D480D4A002100A1814200D90244F5
:1003E0000B48026000F018F8FFF790FF704700001C
:1003F000200200206C040000000000200400002007
:100400000400002020000020000000200000000068
:1004100008ED00E0FEE7C046084B09491A88CB68A2
:100420005205DB0A520DDB021343CB60CB681B0580
:10043000FCD5044B044A1A607047C046080C1000F3
:10044000002000400000002000093D00F8B5C04633
:10045000F8BC08BC9E467047F8B5C046F8BC08BC5E
:040460009E467047FD
:04046400E9000000AB
:04046800C1000000CF
:04046C0000093D0046
:04000003000003AD49
:00000001FF
